:1008D9000A08039F250D9949411F010902120000C9
:1008C600D3EF9400EE648094804007EF1F70F11E12
:0308D60080EE228F
:10088C00E4FDFCD3ED9FEC9E5015E4FBFA0BBB0092
:0F089C00010ABA03F8BBE9F50DBD00010C80E4B9
:0108AB00222A
:1008AC0075A025D2B0C2B17F0F7E0012088C75A046
:0A08BC0025C2B0D2B112088C80E60C
:03000000020800F3
:0C080000787FE4F6D8FD758113020847EC
:10080C000208ACE493A3F8E493A34003F68001F24E
:10081C0008DFF48029E493A3F85407240CC8C333ED
:10082C00C4540F4420C8834004F456800146F6DFBC
:10083C00E4800B01020408102040809008D9E47E6B
:10084C00019360BCA3FF543F30E509541FFEE493B1
:10085C00A360010ECF54C025E060A840B8E493A378
:10086C00FAE493A3F8E493A3C8C582C8CAC583CAA3
:10087C00F0A3C8C582C8CAC583CADFE9DEE780BE5B
:0108E900000E
:00000001FF
