:0808E10002080001020A008078
:1008C100E4FDFCD3ED9FEC9E5015E4FBFA0BBB005D
:0F08D100010ABA03F8BBE9F50DBD00010C80E484
:0108E00022F5
:10088C002090178509A07F327E001208C1E509254A
:10089C00E0F509E50833F50880E62091E3850BA027
:1008AC007F327E001208C1E508A2E713F508E509BE
:0508BC0013F50980E5C1
:03000000020800F3
:0C080000787FE4F6D8FD75810B020847F4
:10080C0002088CE493A3F8E493A34003F68001F26E
:10081C0008DFF48029E493A3F85407240CC8C333ED
:10082C00C4540F4420C8834004F456800146F6DFBC
:10083C00E4800B01020408102040809008E1E47E63
:10084C00019360BCA3FF543F30E509541FFEE493B1
:10085C00A360010ECF54C025E060A840B8E493A378
:10086C00FAE493A3F8E493A3C8C582C8CAC583CAA3
:10087C00F0A3C8C582C8CAC583CADFE9DEE780BE5B
:0108E900000E
:00000001FF
