:10126D00256400252E32660020202057454C434F23
:10127D004D4520202000486F6D65204175746F6DC0
:10128D006174696F6E004C44523A0054656D703A4A
:0F129D00004C3A00463A004F4E20004F464600A4
:06130B00D2B17F027E005A
:10131100E4FDFCD3ED9FEC9E5015E4FBFA0BBB0002
:0F132100010ABA03F8BBE9F50DBD00010C80E429
:01133000229A
:0A137F008FA0C2B012130BC2B122FE
:0A1389008FA0D2B012130BC2B122E4
:0912AC0012137F7BFF7A1279A472
:0612B5008B328A338934FC
:1012BB00E4F535F536F535F536AB32AA33A9348579
:1012CB003682853583120CA3FF600D121389053608
:0812DB00E53670E5053580E100
:0112E30022E8
:101354007535FF75361275376D8E388F397B007A87
:0F136400007922120D747B007A0079220212B5F3
:101331007535FF7536127537708F3B8E3A8D398C46
:10134100387B007A007908120D747B007A007908E5
:031351000212B5D0
:101187007F3812137F7F0112137F7F0E12137F7F29
:101197000612137F7F8012137F7BFF7A12797512F5
:1011A70012B57FC012137F7BFF7A1279831212B5B3
:1011B7007FF47E011213117F0112137F7F801213B8
:1011C7007F7BFF7A1279931212B57F8A12137F7B86
:1011D700FF7A1279981212B57FC012137F7BFF7ABC
:1011E70012799E1212B57FCA12137F7BFF7A12798A
:1011F700A11212B5A290E433751A00F51BA291E46F
:1012070033751800F5197F8412137FAF1BAE1A12BE
:1012170013547F8F12137FAF19AE18121354E51BA7
:10122700451A7FC270071212ACD2B2800E12137F1A
:101237007BFF7A1279A81212B5C2B2E51945187F59
:10124700CC70091212ACD2B3C2B4801012137F7BD8
:10125700FF7A1279A81212B5C2B3C2B47F647E00B6
:061267001213110211BE7A
:100D1800E5492435F8E60549227832300702783566
:100D2800E475F001120CE2020C8A2000EB7F2ED24F
:100D3800008018EF540F2490D43440D4FF30040BB3
:100D4800EF24BFB41A0050032461FFE54A6002157E
:100D58004A054DE54D7002054C30070D7832E475B3
:100D6800F001120CE2EF020CD00212E47403D20775
:100D78008003E4C207F5498B328A338934E4F54AA3
:100D8800F54CF54DE54A60077F20120D5380F57547
:100D98004BFFC201C200C202C203C205C206C2089A
:100DA800120D21FF700D3007057F00120D64AF4D45
:100DB800AE4C22B4255FC2D5C204120D21FF24D047
:100DC800B40A00501A75F00A784A30D50508B6FFFB
:100DD8000106C6A426F620D5047002D20380D924C1
:100DE800CFB41A00EF5004C2E5D204021051D20168
:100DF80080C6D20080C0D20280BCD2D580BAD205CB
:100E080080B47F20120D532002077401B54A0040B8
:100E1800F1120D18FF120D53020D8CD208D2068064
:100E280095120D18FB120D18FA120D18F94A4B708D
:100E38000679487A117BFF20022EE54A602A7E0057
:100E48008E82758300120CA360060EEE654B70F05F
:100E5800C2D5EBC0E0EAC0E0E9C0E0EE1210B1D0C4
:100E6800E0F9D0E0FAD0E0FB120C8AFF60AAEBC0F0
:100E7800E0EAC0E0E9C0E0120D53D0E02401F9D067
:100E8800E03400FAD0E0FBE54B0460DCD54BD980B8
:100E980087D20280A212109460F7E54B7001041209
:100EA8000800A94B600DE54B600914F54B12113B86
:100EB800EF60F3EA30E702F404C3995077EAF425C7
:100EC8004B0430E701E404F54B800D12109460C127
:100ED800EA054B254B120800EA7848F630E701E4AA
:100EE800254B04D54B04200501141210B1E4C0E0D1
:100EF80012113B7848E6601320E70714F6120D3B01
:100F0800802204F6D0E014C0E07F00120D3BE54BD0
:100F18006007120D32154B800B300503120D32D0CD
:100F2800E0020D8CD0E00480C512109460A0E54B5F
:100F3800041208007848EAF6E54B2005026001042F
:050F480024041210B1A9
:100F4D0074FF04C0E012113B120D3BE54B2005026E
:100F5D006003120D32D0E0B54BE87F45120D457898
:100F6D0048E67F2B30E7047F2DF404C0E0120D53CB
:100F7D00D0E075F00A84C0F0120D3CD0E0120D3CAB
:100F8D00020D8C791080027908C206C2088008D241
:100F9D00D5790A8004790AC2D5E54B047002F54B68
:100FAD00E4FAFDFEFF120D18FC7B08200113120D53
:100FBD0018FD7B1030000A120D18FE120D18FF7B64
:100FCD0020EC3382D592D55013C3E43000069FFF39
:100FDD00E49EFEE42001039DFDE49CFCE4CBF8C2FD
:100FED0001EC700CCFCECDCCE824F8F870F380175F
:100FFD00C3EF33FFEE33FEED33FDEC33FCEB33FB90
:10100D00994002FB0FD8E9EB300105F8D0E0C44858
:10101D00B201C0E00AEC4D4E4F78207B0070C2EA61
:10102D00B54B0040BCC0E01210B3D0F0D0E02001B1
:10103D0004C4C0E0C4B201C0F0120D3CD0F0D5F034
:10104D00EB020D8C120CF20E29530F90580DFA4C29
:10105D000DF6420F944F0F9C440F9C490E0F430FFA
:10106D00A2550ED3460F31450E9D471168500DFE0A
:10107D002D0E022E0E252B0E06230E232011512A86
:10108D000DBE4800000E1DE54BB4FF03754B061257
:10109D000D18FC120D18FD120D18FE120D18FF780B
:1010AD004102082F790AA2D5200314300509B91081
:1010BD00020404B9080104A2D5200602500104203F
:1010CD0002689202B54A005034C0E07F2030031907
:1010DD007F30A20272067205500F12110AC202C2AF
:1010ED0006C205C2087F30800F300503E9C0E0124B
:1010FD000D53300503D0E0F9D0E0B54ACC300517DB
:10110D007F30B9100C120D537F583004077F788053
:10111D0003B90803120D533002057F2D020D537FC5
:10112D00202008F87F2B2006F322920280CF7F002B
:10113D00B4070050052441F8E6FF22286E756C6C4B
:10114D002900D201120D183001F8C201784A30D5AC
:10115D000108F6020DBE2D50434958120D182403F7
:10116D00B405004001E490116393120D44743A12DA
:0A117D000D44D203754A04020F90DE
:10080000F920E72824F950037907E4F42402FB18BF
:10081000DBFDE624FB5014E9600DE4F618E604F66F
:0F082000B40A08E4F6D9F57401F60A22C2D5220B
:10082F00ED33EC3392D5FA602AB4FF33EDC2E77B98
:10083F00FF60067A087954E4227A08795D20D5049E
:10084F007A087958224E614E002B494E46002D49A9
:10085F004E4600E47A08F608DAFC7B00740722E8BB
:10086F00C0E0ECC0E0EDC0E0EEC0E0EFC0E0EA7544
:10087F00F010A4CAABF075F04DA42BFBE435F0FCDF
:10088F00EA2410FAEB34C5FBEC34D9FCEDC2E7FFD8
:10089F0075F056A4F42411C5F0F434C58FF0A42AD2
:1008AF00E5F03BE43CF620E714120C00D0E0FFD05B
:1008BF00E0FED0E0FDD0E0FC120B338014F4041204
:1008CF000C00D0E0FFD0E0FED0E0FDD0E0FC120A3B
:1008DF002AD0E0F8E6FAEDD2E7CD33EC332482FBF1
:1008EF00E4C3CF33CFCE33CECD33CD33DBF37B0762
:1008FF0075F00A846004F6081B0AE5F0F6088FF01D
:10090F00740AA4FFACF08EF0740AA42CFEACF05065
:10091F00010C8DF0740AA42CFDE435F0F608DBDE33
:03092F0074072228
:10093200020C75E86480F8E933E83360110460F072
:10094200ED33EC337009E8FCE9FDEAFEEBFF22042B
:1009520060DED3EB9FEA9EE99DE8C2E78CF0C2F726
:1009620095F0400CE8CCF8E9CDF9EACEFAEBCFFBF2
:10097200120C4085D0F05804700320D5B3E80470FF
:10098200075002B2D5020C7F92D5EC0460F7E4CC9A
:10099200C0E0C398F8603B94186008400DD0E0FBBB
:1009A200020C57E4FBFAC9FC8028E830E406E4C9EB
:1009B200FBE4CAFCE830E305E4C9CACBFCE854070F
:1009C2006010F8C3E913F9EA13FAEB13FBEC13FC1A
:1009D200D8F130F52FC3E49CFCEF9BFFEE9AFEEDBD
:1009E20099FDD0E0FBEF4E4D4C701222DB03020C5E
:1009F2007CEC2CFCEF33FFEE33FEED33FDED30E704
:100A0200EB020C57EF2BFFEE3AFEED39FDD0E0FB87
:100A120050130BBB0003020C7FED13FDEE13FEEF30
:080A220013FFEC13FC020C575A
:100A2A00EC4D6011E8497017ED33EC3304600DE4C6
:100A3A00FCFFFEFD22E933E8330470F8020C75125C
:100A4A000C4058046009E4CC24815006285009025D
:100A5A000C7F284003020C7CC0E0EB4A7044B9804A
:100A6A0006D0E0FB020C6BEF4E701CBD8008EBFF5A
:100A7A00EAFEE9FD80EBE98DF0A4FEE5F0020B1336
:100A8A00E9CDF9EAFEEBFFEF89F0A4FCE5F0CE89A7
:100A9A00F0A42EFFE435F0CD89F0A42DFEE435F064
:100AAA008067EF4E7005BD80D780C3EF8BF0A4AC92
:100ABA00F0EE8BF0A42CFCE435F0F8EF8AF0A42CCD
:100ACA00E5F038FCE433CB8DF0A42CFCE5F03BF8E0
:100ADA00EE8AF0A42CFCE5F038F8E433CF89F0A4D0
:100AEA002CFCE5F038CF3400CE89F0A42FFFE5F0D6
:100AFA003EFEE433C98DF0A42EFEE5F039CD8AF02E
:100B0A00A42FFFE5F03EFEE43DFD33D0E0FB5007A5
:100B1A000BBB000F020C7FEC2CFCEF33FFEE33FE15
:060B2A00ED33FD020C5743
:100B3000020C7FEC5D046005E859047003020C753B
:100B4000120C40580460F6EC4860F2EC7004FDFEB4
:100B5000FF22C860DB2481C85009C3986002500698
:100B6000020C7C9850CAF582E9294B4A7005AB8289
:100B7000020C6B75F0007C1A7880C3EF9BEE9AED47
:100B800099400DC3EF9BFFEE9AFEED99FDE842F010
:100B9000DC23ACF0D0E0FFD0E0FED0E0FDAB822063
:100BA000E7101BEB60BAEC2CFCEF33FFEE33FEEDED
:100BB00033FD020C57E803F830E705C0F075F0008C
:100BC000EF2FFFEE33FEED33FD40B830E7C280AAD1
:100BD0003F8000004120000042C80000447A00002D
:100BE000461C400047C35000497424004B189680AF
:100BF0004CBEBC205A0E1BCA6753C21C749DC5AEA6
:100C0000FB60065407601C2323120C2EEB54386043
:100C100009120C1A120C29120A2AECF8EDF9EEFA54
:100C2000EFCB22EB120C2980F1543803241C900BDB
:100C3000D0FE93FC0EEE93FD0EEE930ECE93FF22AC
:100C4000E9D2E7C933E833F892D5EDD2E7CD33ECFA
:070C500033FC5002B2D52273
:100C5700EC30E7100FBF000C0EBE00080DBD0004FE
:100C67000BEB6014A2D5EB13FCED92E7FD2274FFAA
:100C7700FCFDFEFF22E480F8A2D574FF13FC7D8003
:030C8700E480EF17
:0300000002137375
:0C137300787FE4F6D8FD75814D021187EB
:100C8A00BB010689828A83E0225002E722BBFE0268
:090C9A00E32289828A83E493229B
:100CA300BB010CE58229F582E5833AF583E0225006
:100CB30006E92582F8E622BBFE06E92582F8E22250
:0D0CC300E58229F582E5833AF583E493226A
:100CD000BB010689828A83F0225002F722BBFE0103
:020CE000F322FD
:100CE200FAE6FB0808E6F925F0F618E6CA3AF62213
:100CF200D083D082F8E4937012740193700DA3A391
:100D020093F8740193F5828883E4737402936860A4
:060D1200EFA3A3A380DFA4
:1012E400EFB40A07740D1212EF740A309811A8991A
:1012F400B8130CC2983098FDA899C298B811F6306A
:0713040099FDC299F5992241
:00000001FF
