:1008A3004C69676874204F4E0D0A004C6967687481
:0708B300204F46460D0A002C
:0C08BA00758920758DFD759850D28E2236
:06085C008B088A09890ADD
:10086200E4FFFEAB08AA09A90A8F828E8312082F21
:10087200600EF5993099FDC2990FBF00010E80E319
:010882002253
:100800001208BAC2903098FDC29885990BE50BB4D6
:100810004C0BD2907BFF7A0879A312085CE50BB4ED
:0F08200053E3C2907BFF7A0879AE12085C80D652
:10088300E4FDFCD3ED9FEC9E5015E4FBFA0BBB009B
:0F089300010ABA03F8BBE9F50DBD00010C80E4C2
:0108A2002233
:030000000208C62D
:0C08C600787FE4F6D8FD75810B02080075
:10082F00BB010CE58229F582E5833AF583E022507E
:10083F0006E92582F8E622BBFE06E92582F8E222C8
:0D084F00E58229F582E5833AF583E49322E2
:00000001FF
