:10080000C292C291C290C295C294C293C2A0C29732
:10081000C296C2A3C2A2C2A17FF47E0112085D7F6C
:10082000F47E011209097F057E001208A07FF47E84
:10083000011209247F057E001208C37FF47E011295
:10084000093F7F057E001208E67FF47E0112095AF7
:090850007F057E0012087D80C6C0
:10090900D291C292C290D293C295C294D296C2A0F9
:0B091900C297D2A1C2A3C2A202085DD7
:10092400D294C295C293D290C292C291D296C2A0DE
:0B093400C297D2A1C2A3C2A202085DBC
:10093F00D297C2A0C296D293C295C294D290C292BD
:0B094F00C291D2A1C2A3C2A202085DA7
:10095A00D2A2C2A3C2A1D293C295C294D296C2A075
:0B096A00C297D290C292C29102085DB9
:040859007F0A7E0094
:10085D00E4FBFAD3EB9FEA9E5015E4FCFD0DBD00C1
:0F086D00010CBC03F8BDE9F50BBB00010A80E4E8
:01087C002259
:04087D008E088F0949
:10088100E4F583F582D3E5829509E5086480F8E50E
:0E089100836480985008B292120859A380E741
:01089F002236
:0408A0008E088F0926
:1008A400E4F583F582D3E5829509E5086480F8E5EB
:0E08B400836480985008B295120859A380E71B
:0108C2002213
:0408C3008E088F0903
:1008C700E4F583F582D3E5829509E5086480F8E5C8
:0E08D700836480985008B2A0120859A380E7ED
:0108E50022F0
:0408E6008E088F09E0
:1008EA00E4F583F582D3E5829509E5086480F8E5A5
:0E08FA00836480985008B2A3120859A380E7C7
:0109080022CC
:030000000209757D
:0C097500787FE4F6D8FD758109020800C7
:00000001FF
