:0F0A270048656C6C6F205465636B79626F740067
:040A4A00020D000099
:060A0100D2B07F027E006E
:100A0700E4FDFCD3ED9FEC9E5015E4FBFA0BBB0015
:0F0A1700010ABA03F8BBE9F50DBD00010C80E43C
:010A260022AD
:0A0A36008FA0C2B1120A01C2B02263
:0A0A40008FA0D2B1120A01C2B02249
:0609D2008B088A09890A66
:1009D800E4F50BF50CF50BF50CAB08AA09A90A858B
:1009E8000C82850B83120800FF600D120A40050C6B
:0809F800E50C70E5050B80E140
:010A000022D3
:04094400AB07AA064D
:100948007C007D6412082D8E088F097C007D0AAF1B
:1009580003AE0212082D7C007D0A12082D8C0A8D28
:100968000BAE02AF037C007D0A12082D8D82E509CB
:100978002430FF120A40E50B2430FF120A40E582BA
:060988002430FF020A40CA
:10098E007F38120A367F01120A367F0E120A367F20
:10099E0006120A367F80120A367BFF7A0A792712F0
:1009AE0009D27FC0120A36050EE50EAE0D70020595
:1009BE000D14FF1209447FC87E00120A077F011230
:0409CE000A3680D095
:030000000208B83B
:0C08B800787FE4F6D8FD75810E0208FF81
:10080000BB010CE58229F582E5833AF583E02250AD
:1008100006E92582F8E622BBFE06E92582F8E222F7
:0D082000E58229F582E5833AF583E4932211
:10082D00C2D5EC30E709B2D5E4C39DFDE49CFCEEE6
:10083D0030E715B2D5E4C39FFFE49EFE120863C3F3
:10084D00E49DFDE49CFC800312086330D507C3E4EE
:06085D009FFFE49EFE2255
:1008C40002098EE493A3F8E493A34003F68001F2B3
:1008D40008DFF48029E493A3F85407240CC8C33335
:1008E400C4540F4420C8834004F456800146F6DF04
:1008F400E4800B0102040810204080900A4AE47E40
:10090400019360BCA3FF543F30E509541FFEE493F8
:10091400A360010ECF54C025E060A840B8E493A3BF
:10092400FAE493A3F8E493A3C8C582C8CAC583CAEA
:10093400F0A3C8C582C8CAC583CADFE9DEE780BEA2
:010A4E0000A7
:10086300BC000BBE0029EF8DF084FFADF022E4CC79
:10087300F875F008EF2FFFEE33FEEC33FCEE9DEC42
:10088300984005FCEE9DFE0FD5F0E9E4CEFD22ED88
:10089300F8F5F0EE8420D21CFEADF075F008EF2FD2
:1008A300FFED33FD4007985006D5F0F222C398FDC3
:0508B3000FD5F0EA2260
:00000001FF
