:090833007F4C12086C7FC87E00A6
:10083C00E4FDFCD3ED9FEC9E5015E4FBFA0BBB00E2
:0F084C00010ABA03F8BBE9F50DBD00010C80E409
:01085B00227A
:10085C008FA0C2B1D2B07F027E0012083CC2B0227F
:10086C008FA0D2B1D2B07F027E0012083CC2B0225F
:100800007F3812085C7F0112085C7F0E12085C7F43
:100810000612085C7F8012085C7F481208357F450D
:100820001208351208331208337F4F1208351208A8
:030830003C80E128
:0300000002087C77
:0C087C00787FE4F6D8FD758107020800C3
:00000001FF
