:0408D1000208000019
:1008C100758DFC758B67D28E308FFDC28EC28F22E3
:10088C00E4F508F509D3E5099FEE6480F8E5086402
:10089C008098500D1208C10509E50970E80508801B
:0208AC00E42244
:1008AE00758910D2907FE87E0312088CC2901208D0
:0308BE008C80F03B
:03000000020800F3
:0C080000787FE4F6D8FD758109020847F6
:10080C000208AEE493A3F8E493A34003F68001F24C
:10081C0008DFF48029E493A3F85407240CC8C333ED
:10082C00C4540F4420C8834004F456800146F6DFBC
:10083C00E4800B01020408102040809008D1E47E73
:10084C00019360BCA3FF543F30E509541FFEE493B1
:10085C00A360010ECF54C025E060A840B8E493A378
:10086C00FAE493A3F8E493A3C8C582C8CAC583CAA3
:10087C00F0A3C8C582C8CAC583CADFE9DEE780BE5B
:0108D5000022
:00000001FF
