:0408B000020800003A
:10088C00E4F59020A00B30A0FD0509E509700205E8
:10089C000820A10B30A1FDE509150970021508858A
:0408AC00099080DF50
:03000000020800F3
:0C080000787FE4F6D8FD758109020847F6
:10080C0002088CE493A3F8E493A34003F68001F26E
:10081C0008DFF48029E493A3F85407240CC8C333ED
:10082C00C4540F4420C8834004F456800146F6DFBC
:10083C00E4800B01020408102040809008B0E47E94
:10084C00019360BCA3FF543F30E509541FFEE493B1
:10085C00A360010ECF54C025E060A840B8E493A378
:10086C00FAE493A3F8E493A3C8C582C8CAC583CAA3
:10087C00F0A3C8C582C8CAC583CADFE9DEE780BE5B
:0108B4000043
:00000001FF
